:020000001028C6
:10000800FE00030E83120313A0000408A1000A08CF
:10001800A2007F08A300F12D11280E27BD000F278D
:10002800BE001027BF001127C000831330308400A2
:100038003D30FE26FC01FD018301122FF80035300A
:10004800F0000130F1000030F20078085124700807
:10005800710403193728013083120313B8000030E4
:10006800B900ED2608002F30F0000130F100003013
:10007800F200780851247008710403194828831283
:100088000313B801B90108003930F0000130F1005C
:100098000030F200780851247008710403195B28B5
:1000A800013083120313B6000030B7000800313066
:1000B800F0000130F1000030F20078085124700897
:1000C800710403196E28023083120313B60000303E
:1000D800B70008003330F0000130F1000030F200C2
:1000E8007808512470087104031981280330831299
:1000F8000313B6000030B70008003730F0000130B5
:10010800F1000030F20078085124700871040319D6
:100118009428043083120313B6000030B700080097
:100128002D30F0000130F1000030F2007808512441
:10013800700871040319080083120313B601B7018C
:1001480008008312031338033904031DCC2836082A
:100158003704031DB1287A26080036033704031D27
:10016800B72844260800023036063704031DBE2887
:100178005F260800033036063704031DC5282926E4
:100188000800043036063704031D08000E26080050
:1001980038083904031D0800051C851BD528861A54
:1001A800F1283108803AFF0080307F02031DDE28E5
:1001B800053030020318EF28442601308312031358
:1001C800AA000030AB00F1240130B0070318B10ACF
:1001D8000030B10708002926E1280518851FF628F0
:1001E800861E08007A265F26023083120313AA00AF
:1001F8000030AB00F1247A260E2603308312031355
:10020800AA000030AB00F1247A260800380339042C
:10021800031D2F2936083704031D1429ED2608006D
:1002280036033704031D1A29BF2608000230360694
:100238003704031D2129D626080003303606370463
:10024800031D2829A8260800043036063704031D94
:1002580008009126080038083904031D0800051C09
:10026800851B3829861A54293108803AFF008030C6
:100278007F02031D41290530300203185229BF2689
:100288000130F6000030F7004525013083120313D2
:10029800B0070318B10A0030B1070800A82644299E
:1002A8000518851F5929861E0800ED26D626023016
:1002B800F6000030F7004525ED2691260330F600BC
:1002C8000030F7004525ED26080070087104031D6D
:1002D800712983120313051508007108803AF2008A
:1002E800831203133E08803A7202031D7D293D08DC
:1002F80070020318BC29831203133308803AF200F2
:100308007108803A7202031D8B29700832020318A3
:100318009B298312031305119429831203130515CE
:100328000130B2070318B30A0030B307080083127C
:1003380003133308803AF2003E08803A7202031D24
:10034800A7293D083202031C91298312031333089D
:10035800803AF2003E08803A7202031DB5293D0832
:100368003202031C080083120313B201B301080010
:10037800831203130511080070087104031DC829AE
:1003880083120313851508007108803AF20083125E
:1003980003133E08803A7202031DD4293D087002F7
:1003A8000318132A831203133308803AF2007108E2
:1003B800803A7202031DE229700832020318F229FA
:1003C800831203138511EB2983120313851501305A
:1003D800B2070318B30A0030B307080083120313E7
:1003E8003308803AF2003E08803A7202031DFE2963
:1003F8003D083202031CE829831203133308803AAC
:10040800F2003E08803A7202031D0C2A3D083202AF
:10041800031C080083120313B201B30108008312FE
:1004280003138511080070087104031D1F2A831225
:100438000313061408007108803AF20083120313AC
:100448003E08803A7202031D2B2A3D0870020318E9
:100458006A2A831203133508803AF2007108803A39
:100468007202031D392A700834020318492A8312BC
:1004780003130610422A8312031306140130B4072B
:100488000318B50A0030B5070800831203133508AE
:10049800803AF2003E08803A7202031D552A3D0850
:1004A8003402031C3F2A831203133508803AF200F2
:1004B8003E08803A7202031D632A3D083402031C79
:1004C800080083120313B401B50108008312031353
:1004D8000610080070087104031D762A831203139E
:1004E800861508007108803AF200831203133E084B
:1004F800803A7202031D822A3D0870020318C12A3D
:10050800831203133508803AF2007108803A7202A8
:10051800031D902A700834020318A02A83120313BB
:100528008611992A8312031386150130B40703181C
:10053800B50A0030B5070800831203133508803A5E
:10054800F2003E08803A7202031DAC2A3D083402CC
:10055800031C962A831203133508803AF2003E08DA
:10056800803A7202031DBA2A3D083402031C0800AF
:1005780083120313B401B501080083120313861113
:10058800080024082504031DCB2A051508002508A2
:10059800803AA6003E08803A2602031DD52A3D0867
:1005A80024020318142B831203133308803AA6007D
:1005B8002508803A2602031DE32A2408320203187C
:1005C800F32A831203130511EC2A8312031305156A
:1005D8000130B2070318B30A0030B30708008312CA
:1005E80003133308803AA6003E08803A2602031D0A
:1005F800FF2A3D083202031CE92A83120313330839
:10060800803AA6003E08803A2602031D0D2B3D08BD
:100618003202031C080083120313B201B30108005D
:10062800831203130511080024082504031D1E2B3B
:10063800851508002508803AA6003E08803A26025B
:10064800031D282B3D0824020318672B831203136C
:100658003308803AA6002508803A2602031D362B67
:10066800240832020318462B8312031385113F2BEB
:100678008312031385150130B2070318B30A00303B
:10068800B3070800831203133308803AA6003E0814
:10069800803A2602031D522B3D083202031C3C2BD4
:1006A800831203133308803AA6003E08803A2602D4
:1006B800031D602B3D083202031C0800831203133C
:1006C800B201B3010800831203138511080024083E
:1006D8002504031D712B061408002508803AA6007E
:1006E8003E08803A2602031D7B2B3D08240203188E
:1006F800BA2B831203133508803AA6002508803ADE
:100708002602031D892B240834020318992B83120F
:1007180003130610922B8312031306140130B40737
:100728000318B50A0030B50708008312031335080B
:10073800803AA6003E08803A2602031DA52B3D08F4
:100748003402031C8F2B831203133508803AA6004A
:100758003E08803A2602031DB32B3D083402031CD1
:10076800080083120313B401B501080083120313B0
:100778000610080024082504031DC42B861508004C
:100788002508803AA6003E08803A2602031DCE2B93
:100798003D08240203180D2C831203133508803AF0
:1007A800A6002508803A2602031DDC2B2408340203
:1007B8000318EC2B831203138611E52B8312031302
:1007C80086150130B4070318B50A0030B5070800CC
:1007D800831203133508803AA6003E08803A2602A1
:1007E800031DF82B3D083402031CE22B831203136C
:1007F8003508803AA6003E08803A2602031D062CDA
:100808003D083402031C080083120313B401B50128
:100818000800831203138611080004308A000408B4
:10082800840A82070034413454342B344E34413422
:100838004D3445344434653473346B3442346F3446
:1008480074340034413454342B34503449344E34E5
:1008580031343234333434340034413454342B3466
:100868004D344F34443445343D343034003441340D
:1008780054342B3452344F344C3445343D3453348F
:10088800003441340034443400344C3400344D34A2
:1008980000345234003455340034F500F601F701C1
:1008A80072087702031D5A2C710876020318080093
:1008B8007608700784001124F30076087507F400A1
:1008C80074088400831300087306031D7E2C01300E
:1008D800F6070318F70A0030F70772087706031DB2
:1008E800772C71087606031D7E2C0130F00000304D
:1008F800F10008007608700784001124F3007608D8
:100908007507F40074088400000873060319542C52
:10091800F001F10108008316981C8F2C093083120E
:10092800A4000030A50025306C2583160313981CFD
:10093800992C01308312AA000030AB001B25093026
:10094800A4000030A5001B306C2583160313981CE7
:10095800A92C0E308312A4000030A50001306C25AC
:1009680083160313981CB42C01308312AA0000309C
:10097800AB001B250A30A4000030A50010306C2500
:10098800080083168E15073083129F0083160514FE
:100998008517861106100511851183128615061410
:1009A8008515051583168616061606270130AA0032
:1009B8000030AB001B258F24831603138C16E530FB
:1009C80083128F0016308E004130900083160C146D
:1009D8000B1601170B178B1708002B08A5002A0800
:1009E800A4006430A6000030A7008E252508AB00BF
:1009F8002408AA00AE01AF012B082F02031D062D03
:100A08002A082E02031808001A3083120313AD00B7
:100A1800F830AC00AC0B0E2DAD0B0E2D013083124F
:100A28000313AE070318AF0A0030AF07002D2B08D9
:100A3800A5002A08A4003230A6000030A7008E25A1
:100A48002508AB002408AA00AE01AF012B082F022D
:100A5800031D302D2A082E02031808001A308312AD
:100A68000313AD00F830AC00AC0B382DAD0B382DAE
:100A7800013083120313AE070318AF0A0030AF0723
:100A88002A2D7708F1007608F0006430F200003073
:100A9800F300AF257108F7007008F600FA01FB01B2
:100AA80077087B02031D5A2D76087A02031808007E
:100AB8001A30F900F830F800F80B602DF90B602DAA
:100AC80000000130FA070318FB0A0030FB07542D19
:100AD800A900A701A801A701A8012808803AA60033
:100AE8002508803A2602031D7B2D240827020318B7
:100AF800080083160313981C7D2D831227082907E5
:100B08008400112499000130A7070318A80A0030AF
:100B1800A807712DA801A901241C982D2608A8074B
:100B28000318A90A2708A90701300310A60DA70D65
:100B3800FF3E031D992D01300310A50CA40CFF3EA8
:100B4800031DA02D24082504031D902D2908A500A8
:100B58002808A4000800F401F501701CB92D7208DA
:100B6800F4070318F50A7308F50701300310F20DAE
:100B7800F30DFF3E031DBA2D01300310F10CF00CEC
:100B8800FF3E031DC12D70087104031DB12D7508AA
:100B9800F1007408F0000800F300F401F5018C1E60
:100BA800EC2D981CD92D18121816181DDD2D981328
:100BB800981774087307F200720884001A088313E0
:100BC80080000130F4070318F50A0030F507D32D2B
:100BD8007508F1007408F00008008C1EFB2D3A30EF
:100BE800D0257108FD007008FC003A3022208312DD
:100BF80003130C1C032E0A21831203130C10230861
:100C0800FF0022088A0021088400200E8300FE0EBF
:100C18007E0E0900003083120313A400A500BE2332
:100C2800831203134008A5003F08A4006B2300307B
:100C380083120313A400A50018238312031340088A
:100C4800A5003F08A400C522080000308312031342
:100C5800A400A500BE23831203134008A5003F0883
:100C6800A4006B23003083120313A400A500C5223F
:100C7800831203134008A5003F08A40018230800A6
:100C8800003083120313A400A5006B2383120313FF
:100C98004008A5003F08A400BE23003083120313B8
:100CA800A400A5001823831203134008A5003F08D9
:100CB800A400C5220800003083120313A400A50075
:100CC800BE23831203134008A5003F08A4006B232A
:100CD800003083120313A400A500C5228312031356
:100CE8004008A5003F08A400182308000030A4000D
:100CF800A500BE23003083120313A400A5006B23B4
:100D0800003083120313A400A500182300308312B7
:100D18000313A400A500C52208000030F000F1006C
:100D28006E22831203134008F1003F08F0001722D7
:100D38000030F000F100C021831203134008F100D5
:100D48003F08F000692108000030F000F1006E2231
:100D5800831203134008F1003F08F0001722003007
:100D6800F000F1006921831203134008F1003F08E5
:100D7800F000C02108000030F000F10017228312B3
:100D880003134008F1003F08F0006E220030F00025
:100D9800F100C021831203134008F1003F08F0005E
:100DA800692108000030F000F1006E22831203135D
:100DB8004008F1003F08F00017220030F000F10071
:100DC8006921831203134008F1003F08F000C02195
:100DD80008000030F000F1006E220030F000F10051
:100DE80017220030F000F100C0210030F000F100BF
:100DF8006921080064008001840A0406031900348C
:100E08000406FF2E20309900223098009630831275
:100E1800980008000A3400340A340034C524A52098
:020E2800132F86
:08400000FF3FFF3FFF3FFF3FC0
:02400E00983FD9
:00000001FF
